{
  "contractName": "Campaign",
  "abi": [
    {
      "inputs": [
        {
          "internalType": "address payable",
          "name": "_owner",
          "type": "address"
        },
        {
          "internalType": "string",
          "name": "_title",
          "type": "string"
        },
        {
          "internalType": "string",
          "name": "_description",
          "type": "string"
        },
        {
          "internalType": "uint256",
          "name": "_deadline",
          "type": "uint256"
        },
        {
          "internalType": "uint256",
          "name": "_goal",
          "type": "uint256"
        }
      ],
      "payable": false,
      "stateMutability": "nonpayable",
      "type": "constructor"
    },
    {
      "constant": true,
      "inputs": [],
      "name": "owner",
      "outputs": [
        {
          "internalType": "address payable",
          "name": "",
          "type": "address"
        }
      ],
      "payable": false,
      "stateMutability": "view",
      "type": "function"
    },
    {
      "constant": false,
      "inputs": [],
      "name": "contribute",
      "outputs": [],
      "payable": true,
      "stateMutability": "payable",
      "type": "function"
    },
    {
      "constant": false,
      "inputs": [],
      "name": "checkIfCampaignComplete",
      "outputs": [],
      "payable": false,
      "stateMutability": "nonpayable",
      "type": "function"
    },
    {
      "constant": false,
      "inputs": [],
      "name": "returnFunds",
      "outputs": [
        {
          "internalType": "bool",
          "name": "",
          "type": "bool"
        }
      ],
      "payable": false,
      "stateMutability": "nonpayable",
      "type": "function"
    },
    {
      "constant": true,
      "inputs": [],
      "name": "getDetails",
      "outputs": [
        {
          "internalType": "address",
          "name": "_id",
          "type": "address"
        },
        {
          "internalType": "address payable",
          "name": "_owner",
          "type": "address"
        },
        {
          "internalType": "string",
          "name": "_title",
          "type": "string"
        },
        {
          "internalType": "string",
          "name": "_description",
          "type": "string"
        },
        {
          "internalType": "uint256",
          "name": "_deadline",
          "type": "uint256"
        },
        {
          "internalType": "enum Campaign.State",
          "name": "_state",
          "type": "uint8"
        },
        {
          "internalType": "uint256",
          "name": "_raised",
          "type": "uint256"
        },
        {
          "internalType": "uint256",
          "name": "_goal",
          "type": "uint256"
        }
      ],
      "payable": false,
      "stateMutability": "view",
      "type": "function"
    }
  ],
  "bytecode": "0x608060405234801561001057600080fd5b5060405162000bc838038062000bc8833981810160405260a081101561003557600080fd5b81019080805190602001909291908051604051939291908464010000000082111561005f57600080fd5b8382019150602082018581111561007557600080fd5b825186600182028301116401000000008211171561009257600080fd5b8083526020830192505050908051906020019080838360005b838110156100c65780820151818401526020810190506100ab565b50505050905090810190601f1680156100f35780820380516001836020036101000a031916815260200191505b506040526020018051604051939291908464010000000082111561011657600080fd5b8382019150602082018581111561012c57600080fd5b825186600182028301116401000000008211171561014957600080fd5b8083526020830192505050908051906020019080838360005b8381101561017d578082015181840152602081019050610162565b50505050905090810190601f1680156101aa5780820380516001836020036101000a031916815260200191505b50604052602001805190602001909291908051906020019092919050505030600160006101000a81548173ffffffffffffffffffffffffffffffffffffffff021916908373ffffffffffffffffffffffffffffffffffffffff160217905550846000806101000a81548173ffffffffffffffffffffffffffffffffffffffff021916908373ffffffffffffffffffffffffffffffffffffffff160217905550836002908051906020019061025f9291906102bb565b5082600390805190602001906102769291906102bb565b50816004819055508060058190555060006006819055506000600760006101000a81548160ff021916908360028111156102ac57fe5b02179055505050505050610360565b828054600181600116156101000203166002900490600052602060002090601f016020900481019282601f106102fc57805160ff191683800117855561032a565b8280016001018555821561032a579182015b8281111561032957825182559160200191906001019061030e565b5b509050610337919061033b565b5090565b61035d91905b80821115610359576000816000905550600101610341565b5090565b90565b61085880620003706000396000f3fe60806040526004361061004a5760003560e01c80631eb5ea2e1461004f57806335f9cd901461007e5780638da5cb5b14610095578063d7bb99ba146100ec578063fbbf93a0146100f6575b600080fd5b34801561005b57600080fd5b50610064610282565b604051808215151515815260200191505060405180910390f35b34801561008a57600080fd5b506100936103e5565b005b3480156100a157600080fd5b506100aa610454565b604051808273ffffffffffffffffffffffffffffffffffffffff1673ffffffffffffffffffffffffffffffffffffffff16815260200191505060405180910390f35b6100f4610479565b005b34801561010257600080fd5b5061010b6105a1565b604051808973ffffffffffffffffffffffffffffffffffffffff1673ffffffffffffffffffffffffffffffffffffffff1681526020018873ffffffffffffffffffffffffffffffffffffffff1673ffffffffffffffffffffffffffffffffffffffff168152602001806020018060200187815260200186600281111561018d57fe5b60ff168152602001858152602001848152602001838103835289818151815260200191508051906020019080838360005b838110156101d95780820151818401526020810190506101be565b50505050905090810190601f1680156102065780820380516001836020036101000a031916815260200191505b50838103825288818151815260200191508051906020019080838360005b8381101561023f578082015181840152602081019050610224565b50505050905090810190601f16801561026c5780820380516001836020036101000a031916815260200191505b509a505050505050505050505060405180910390f35b6000600180600281111561029257fe5b600760009054906101000a900460ff1660028111156102ad57fe5b146102b757600080fd5b6000600860003373ffffffffffffffffffffffffffffffffffffffff1673ffffffffffffffffffffffffffffffffffffffff168152602001908152602001600020541161030357600080fd5b6000600860003373ffffffffffffffffffffffffffffffffffffffff1673ffffffffffffffffffffffffffffffffffffffff1681526020019081526020016000205490506000600860003373ffffffffffffffffffffffffffffffffffffffff1673ffffffffffffffffffffffffffffffffffffffff168152602001908152602001600020819055503373ffffffffffffffffffffffffffffffffffffffff166108fc829081150290604051600060405180830381858888f19350505050156103db57806006540360068190555060019250506103e1565b60009250505b5090565b60055460065410610422576002600760006101000a81548160ff0219169083600281111561040f57fe5b021790555061041c61075b565b50610452565b600454421115610451576001600760006101000a81548160ff0219169083600281111561044b57fe5b02179055505b5b565b6000809054906101000a900473ffffffffffffffffffffffffffffffffffffffff1681565b600080600281111561048757fe5b600760009054906101000a900460ff1660028111156104a257fe5b146104ac57600080fd5b6000809054906101000a900473ffffffffffffffffffffffffffffffffffffffff1673ffffffffffffffffffffffffffffffffffffffff163373ffffffffffffffffffffffffffffffffffffffff16141561050657600080fd5b34600860003373ffffffffffffffffffffffffffffffffffffffff1673ffffffffffffffffffffffffffffffffffffffff1681526020019081526020016000205401600860003373ffffffffffffffffffffffffffffffffffffffff1673ffffffffffffffffffffffffffffffffffffffff16815260200190815260200160002081905550346006540160068190555061059e6103e5565b50565b600080606080600080600080600160009054906101000a900473ffffffffffffffffffffffffffffffffffffffff1697506000809054906101000a900473ffffffffffffffffffffffffffffffffffffffff16965060028054600181600116156101000203166002900480601f01602080910402602001604051908101604052809291908181526020018280546001816001161561010002031660029004801561068c5780601f106106615761010080835404028352916020019161068c565b820191906000526020600020905b81548152906001019060200180831161066f57829003601f168201915b5050505050955060038054600181600116156101000203166002900480601f0160208091040260200160405190810160405280929190818152602001828054600181600116156101000203166002900480156107295780601f106106fe57610100808354040283529160200191610729565b820191906000526020600020905b81548152906001019060200180831161070c57829003601f168201915b505050505094506004549350600760009054906101000a900460ff169250600654915060055490509091929394959697565b6000600280600281111561076b57fe5b600760009054906101000a900460ff16600281111561078657fe5b1461079057600080fd5b6000809054906101000a900473ffffffffffffffffffffffffffffffffffffffff1673ffffffffffffffffffffffffffffffffffffffff166108fc6006549081150290604051600060405180830381858888f193505050501561081a576002600760006101000a81548160ff0219169083600281111561080c57fe5b02179055506001915061081f565b600091505b509056fea265627a7a723158205d17fc22c2bb2f96d6907fac4505b533cab2115afe7ce77a4411d09352a5863c64736f6c634300050c0032",
  "source": "pragma solidity 0.5.12;\n\n// help from here\n// https://programtheblockchain.com/posts/2018/01/19/writing-a-crowdfunding-contract-a-la-kickstarter/\n// https://medium.com/openberry/creating-a-simple-crowdfunding-dapp-with-ethereum-solidity-and-vue-js-69ddb8e132dd\n\ncontract CryptFunding {\n    Campaign[] private campaigns;\n\n    // map {address : amount of money pledged}\n    mapping(address => uint256) public pledges;\n\n    // external functions use less gas because external functions can be read directly from call data\n    function createCampaign(uint256 numHours, uint256 goalAmount, string calldata newTitle, string calldata newDescription) external {    \n        Campaign newCampaign = new Campaign(\n            msg.sender,\n            newTitle,\n            newDescription,\n            now + (numHours * 1 hours),\n            goalAmount\n        );\n\n        campaigns.push(newCampaign);\n    }\n\n    function getCampagins() external view returns (Campaign[] memory) {\n        return campaigns;\n    }\n\n    // function DeleteCampaign(uint256 id) public {\n    //     require(campaigns[id]);\n        \n    //     delete campaigns[id];\n    // }\n}\n\ncontract Campaign {\n    enum State {\n        Fundraising,\n        Expired,\n        Successful\n    }\n\n    modifier inState(State _state) {\n        require(state == _state);\n        _;\n    }\n\n    address payable public owner;\n    address id;\n    string title;\n    string description;\n    uint256 deadline;\n    uint256 goal;\n    uint256 raised;\n    State state;\n\n    mapping (address => uint256) contributions;\n\n    constructor(\n        address payable _owner,\n        string memory _title,\n        string memory _description,\n        uint256 _deadline,\n        uint256 _goal\n    ) public {\n        id = address(this);\n        owner = _owner;\n        title = _title;\n        description = _description;\n        deadline = _deadline;\n        goal = _goal;\n        raised = 0;\n        state = State.Fundraising;\n    }\n\n    function contribute() external inState(State.Fundraising) payable {\n        require(msg.sender != owner);\n        contributions[msg.sender] = contributions[msg.sender] + msg.value;\n        raised = raised + msg.value;\n        checkIfCampaignComplete();\n    }\n\n    function checkIfCampaignComplete() public {\n        if (raised >= goal) { \n            state = State.Successful;\n            releaseFunds();\n        } else if (now > deadline) {\n            state = State.Expired;\n        }\n    }\n\n    function releaseFunds() internal inState(State.Successful) returns (bool) {\n        if (owner.send(raised)) {\n            state = State.Successful;\n            // emit creator paid\n            return true;\n        } \n        // if code reaches here, money not sent to creator\n        return false;\n    }\n\n    function returnFunds() public inState(State.Expired) returns (bool) {\n        require(contributions[msg.sender] > 0);\n\n        uint256 refundAmount = contributions[msg.sender];\n        contributions[msg.sender] = 0;\n\n        if (msg.sender.send(refundAmount)) {\n            raised = raised - refundAmount;\n            return true;\n        }\n\n        return false;\n    }\n\n    function getDetails() public view returns(\n        address _id,\n        address payable _owner,\n        string memory _title,\n        string memory _description,\n        uint256 _deadline,\n        State _state,\n        uint256 _raised,\n        uint256 _goal\n    ) {\n        _id = id;\n        _owner = owner;\n        _title = title;\n        _description = description;\n        _deadline = deadline;\n        _state = state;\n        _raised = raised;\n        _goal = goal;\n    }\n}",
  "sourcePath": "/Users/dinula/Documents/repos/CryptStarter/contracts/CryptFunding.sol",
  "compiler": {
    "name": "solc",
    "version": "0.5.12+commit.7709ece9.Emscripten.clang"
  },
  "schemaVersion": "3.0.20",
  "updatedAt": "2020-01-19T17:03:29.690Z",
  "devdoc": {
    "methods": {}
  },
  "userdoc": {
    "methods": {}
  }
}